:0400000068C0FECF07
:10000400FDCFFCCFFBCFFACF8EC0F8CFF7CFF6CF22
:10001400F5CFF4CFF3CFF2CFF1CFF0CFEFCFEECFD8
:10002400EDCF1027E80364000A000100001000016E
:1000340010000100000014000000000000DDCCBB33
:10004400CB03DDCCBBCB06DDCCBBCB09DDCCBBCB42
:100054000CDDCCBBCB0FDDCCBBCB12DDCCBBCB15CD
:10006400DDCCBBCB18DDCCBBCB1BDDCCBBCB0000CC
:10007400000000000101010101010202020202026A
:10008400030303030303040404040404050505052E
:1000940005050606060606060707070707070808F4
:1000A40008080808090909090909E7E7E7E7E7C2B1
:1000B400C2C2C2C2E7E7E7E7E7000800040038006D
:1000C4003200600140003C00920172000000F8948C
:1000D400EE27ECBBF1E0FBBFEBBFE5BF8DE0A2E098
:1000E400BB27ED938A95E9F780E094E0A0E6ED93D1
:1000F4000197E9F7EEEBF0E085919591009761F0B7
:10010400A591B59105901590BF01F00105900D9250
:100114000197E1F7FB01F0CFEFE5EDBFE4E0EEBFBF
:10012400C0E6D1E022C0EA93FA93EFB7EA93F20172
:1001340031962F014614570420F0E1E08E2E44241A
:100144005524E991EFBFF991E9911895E0B3E87F5F
:10015400F0E06ED2E095EF719E2EF5D1E92DA3E08B
:10016400EA02F001AE2FC5D00895EEE2E7BBE0E06D
:10017400E8BBE7E3E4BBE5BBE0E0E1BBE8EFE2BBFF
:10018400E0E0E3BFE2BFE2E0EFBDEAE1EEBDE0E0C4
:10019400EDBDECBDE9E0E7BDE3ECE6BDE0E0EBBDC1
:1001A400EABDE9BDE8BDE2BDE5BDE4BDE3BDE0E116
:1001B400E9BFE0E0E5BFEBB9E8E1EAB9E6E8E0BDB4
:1001C400E0E0E0BDECE0E9B9E0E8E8B9E0E0E0BF98
:1001D400E6B9E0E5EDB9E0E0EEB9E6BF60D0B3D151
:1001E400A0E073D07894B2DFA92D86D1AAE084D19F
:1001F400ADE082D18820E1F0442455248824E92DFF
:10020400A6E0EA9FF001EE56FE4FA6D1A5E0CFD0BE
:10021400E03021F4E4E1F0E03F010AC0E13041F4D0
:10022400ECE2F1E03F01AC98A4E6B0E0F7D1AC9A7F
:10023400DACFFFCFAA93A981A03268F42297EB8189
:10024400E062E883EA81E983C298A8815BD1A9814D
:1002540059D1C29A22962296089581D1ED81E06205
:100264000E2FC298A02F4ED1EB81FC8175D1AC81A9
:10027400BB274FD1C29AEAD126960895AA93A881A2
:10028400A03258F42197E0E0E883C298A9813AD1DA
:1002940054D1E883C29A21963AC1E0E038C11A9356
:1002A400C198A0E0BFD05ED160D1E4E0EA93AFEFA3
:1002B4005ED162D1EDE1EA93A6E0BCDF61D11C60BE
:1002C40051D162D1C19A1991089549D110E000E049
:1002D400C1985CD167D158D1E1E069D1E2E067D13E
:1002E400ECE165D1EBE066D1A4EFB1E097D1AED1FA
:1002F40022C135D110E000E0C19842D1116032D161
:1003040043D144D14FD140D1E1E05AD1E2E058D1B8
:10031400ECE156D1EAE04ED1ACE2B1E07FD196D126
:100324000AC11DD12DD1EA81F0E0E130A0E0FA0745
:1003340051F411FD07C0E12FE26045D146D1A2E09E
:10034400B0E06CD12DC0E230A0E0FA0729F4E12F2F
:10035400ED7F39D13AD124C0E330A0E0FA0741F46B
:10036400E12FE16030D131D100E731D12ED118C075
:10037400E430A0E0FA0729F4E12FEE7F24D125D15F
:100384000FC0E530A0E0FA0711F4C19809C0E630C7
:10039400A0E0FA0729F4E12FEE7F15D116D11AD186
:1003A40055D123960895A3E0BCDF14D10895AA93F0
:1003B40046D110E000E030E020E0A4E0B2DFE2EE5D
:1003C4000ED1E1EE0CD120E202D1A22F33DFC19A8B
:1003D40083E48A95F1F7C198C29810EAA12F92D0CC
:1003E400ED81FE81B9D0AE81BB279CD0AD98C29A75
:1003F400A3E0B0E013D1A7E041DF3E2F35FF0BC0EF
:10040400AD9ABB24D0DFE3D0A32F14DFEAD0A22F10
:1004140011DFE1E004C0E5D0A22F0CDFE0E014D14D
:1004240027960895AA932F978FE0A0E0B0E0EEEA14
:10043400F0E00FD11A93A889A73039F4A7E01EDFA2
:100444001E2F1067C4D0A12F53C0A889A73121F44F
:10045400E7E1EA93A1E14CC085D0A8E0EBDEE1E05E
:10046400EA93AFE3E7DEE2E0EA93A3E080D0E4E0DE
:10047400EA93A3E0DFDEE5E09AD07ED0A8D075D081
:10048400E8E0ADD0E9E0ABD0EAE0EA93FE013C96C7
:10049400ADD0EBE0EA93FE013796A8D0ECE0EA9306
:1004A400A3ECC8DEEDE0EA93A4ECC4DEEEE0EA934C
:1004B400A5ECC0DEEFE0EA93A6ECBCDEE0E1EA9353
:1004C400FE01329693D0E1E18AD0E2E188D0E3E103
:1004D40086D0E4E184D0E5E182D0E6E180D0E7E1B2
:1004E400EA93A1E1A7DEECE17AD0EDE1EA93A0E0A2
:1004F400A1DE188161960895AA935D9BFECFE881E1
:10050400ECB905C0AA93E881EFB9779BFECF219699
:1005140008956FD074D028F479D0779BFECF1F5FF5
:10052400F9CF08C066D06BD028F470D0779BFECF8B
:100534001F5FF9CF188125960895AFEFE3DF779B0E
:10054400FECFEFB10895E92DA5E0EA9FF001E05A4E
:10055400FE4FFA93EA930895FA93EA930895AA93BF
:1005640070D00895E0E0EA930895A0E063CE62DEDF
:10057400E3E0EA93A3E05ECEE6E0EA93AEE05ACE8F
:10058400A0E07CDE1E2F0895A12F54CEE5E0EA936F
:10059400AB8150DEE0E1EA93EC81FD81DDDFA5E093
:1005A4005CDEEECFE12FE260EE7F1E2FDBCFEA931D
:1005B400A2E040CEEA93EC81FD81CEDFA5E04DCEF2
:1005C400EA93A1E037CE0E2FCDCFA02F33CEE7E0B4
:1005D400EA930895C19A84E68A95F1F70895EA9317
:1005E400C4CFA0E04BDE2E2F2D7FBCCFB5DFA5E01E
:1005F40034CEBA93AA931A9310E010E00895E981D7
:10060400FA81A12FB0E0AE17BF070895AB81BC817A
:10061400EE27A10FBE1FEC91EFB90895109639F0A3
:10062400A89584EF91E00197F1F71197C9F7089520
:10063400F595E795F595E795F595E79508953A933A
:100644002A931A930A9308953B812A811981088178
:100654000895AC0FBD1F05900D928A95E1F708959A
:00000001FF
