:0800000038C0FECFFDCFFCCF9C
:10000800FBCFFACFF9CFF8CFF7CF5BC0F5CFF4CF5E
:10001800F3CFF2CFF1CFF0CFEFCFEECFEDCF00009F
:10002800000048656C6C6F31252E3266200A0D2061
:100038000000E7E7E7E7E7C2C2C2C2C2E7E7E7E7CF
:10004800E70041002D4E414E000001002D4E414E6B
:1000580000494E460000040004002600020060012A
:100068004A0001009B0152000000F894EE27ECBB07
:10007800F1E0FBBFEBBFE5BF8DE0A2E0BB27ED934E
:100088008A95E9F780E094E0A0E6ED930197E9F717
:10009800EEE5F0E085919591009761F0A591B59115
:1000A80005901590BF01F00105900D920197E1F7B9
:1000B800FB01F0CFEFE5EDBFE4E0EEBFC0E6D1E035
:1000C800D8C00A921A92FA926A937A938A939A9368
:1000D800AA93BA93EA93FA93EFB7EA93E6E0E2BFFA
:1000E800A1E0B0E0E6D1E03039F0AAE7B1E0FED116
:1000F800C4D17AD6ABE0C7D2E991EFBFF991E991C3
:10010800B991A9919991899179916991F9901990E9
:1001180009901895AA93E881E7B987E08A95F1F7DD
:10012800369A349BFECF349AE4B1F5B1AAC261D6AF
:1001380063D611F008F007C0A99AAA9AA89862D6BF
:10014800A89A60D625C061D657D609F008F405C02C
:100158005ED611F008F001C001C002C0A89816C010
:1001680056D609F008F405C059D611F008F001C0B8
:1001780001C003C0A898A9980AC050D609F008F48D
:1001880004C0A898A998AA9803C0A89AA99AAA9A54
:10019800A2C5E0B3E87FF0E051D92F01309721F4F0
:1001A800E0E043D6A0E036C0E130A0E0FA0721F451
:1001B800E3E03BD6A3E02EC0E230A0E0FA0799F4D2
:1001C800EEEEE0939A01E6E0E0939B01ECECE0931D
:1001D8009C01EBEBE0939D01EBECE0939E01E5E0E5
:1001E800EA93A6E017C0E430A0E0FA0721F4E9E0BA
:1001F8001CD6A9E00FC0E830A0E0FA0721F4EBE034
:1002080014D6ACE007C0E031A0E0FA0721F4EEE034
:100218000CD6AFE0B5D00895EF976197BED920E02E
:1002280030E014D60832E0E01E076CF412D6EA0F6C
:10023800FB1FFF93EF93A3E06DDFAF91BF91ED93A9
:10024800FC930DD6EFCF02D60832E0E01E0744F447
:1002580000D6AE0FBF1F6BD92E0F3F1F00D6F4CFAD
:10026800D901E8E2F0E00FD99F019ED9EF96659693
:100278000895EEE2E7BBE0E0E8BBE7E7E4BBE7E3CD
:10028800E5BBE0E0E1BBE8EFE2BBE2E0E3BFE6E0CC
:10029800E2BFE0E0EFBDEEBDE8EFEDBDE0E3ECBDB1
:1002A800E0E0E7BDE6BDEBBDEABDE9BDE8BDE2BD06
:1002B800E5BDE6E0E4BDE0E0E3BDE1E0E9BFE0E0A4
:1002C800E5BFEBB9E8E1EAB9E6E8E0BDE0E0E0BDAA
:1002D800ECE0E9B9E0E8E8B9E0E0E7B9E1E8E6B977
:1002E800E0E0E0BFE0E5EDB9E0E0EEB9E6BF789424
:1002F800AC98A8EEB3E0E3D67DD04BDFEAE9F1E0B5
:10030800B1D5A9E095D088DF662777274ED7ADD538
:10031800E0E0F0EC6FE774E420D8A0E0B0E080E023
:1003280090E4CDD7A6E6B6E686E890E4C8D79DD592
:10033800E3EEF5EA6BE87FE310D8E0937601F093FB
:10034800770160937801709379014ED5E0E3F0E08E
:1003580089D5E0917601F0917701609178017091EB
:100368007901FED884E02DD42896A0917601B09129
:1003780077018091780190917901D9DEC4CFFFCFC0
:10038800AA93A981A03268F42297EB81E062E883FE
:10039800EA81E983C298A88134D1A98132D1C29A6D
:1003A800229622960895AA93FAD8ED81E0620E2F3C
:1003B800C298A02F26D1EB81FC8154D5AC81BB27F4
:1003C80026D1C29A56C1AA93A881A03258F421977F
:1003D800E0E0E883C298A98114D130D1E883C29AB9
:1003E80021964FC1E0E04DC1AA93C298A88109D1D6
:1003F800C29A47C11A93C198A7E094D0A7E192D0B6
:1004080037D539D5E4E0EA93AAEFBADFE5E0EA9315
:10041800A9E033D537D5EDE1EA93A6E02ED5A0E0E3
:1004280035D51C6025D5A12FABDFC19A1991089548
:10043800AA93B3D8C198A2E029D51260E2E0EA9362
:10044800A12F9EDFA1E0BFDF0E2F0260E1E0EA935B
:10045800A02F96DFEBE0EA931CD51ED5ECE1EA93DA
:10046800A2E08EDFA0E0AFDF3E2F336001D5A32FDF
:1004780087DFC19A99D8279608958FD800E611E0AA
:1004880021E030E0C298A8EABCD0F9012150304000
:10049800309729F0D801E3D4AC91B3D0F6CFC29A03
:1004A800A4E6B0E00CD6AD98AC9AACD4AD9A7CD8A2
:1004B80012C4F4D41A93A7E0E9D416FF0AC0E9815C
:1004C800FA81EE0FFF1FA12FB0E0EA23FB2330973C
:1004D80009F408C0AD9AAC98E7E0EA93A12F50DF81
:1004E800E1E001C0E0E0188123960895D7D455D8FB
:1004F80010E000E030E0C29810E6A12F82D09ED034
:100508000E2FC29AC29811E6A12F7BD0EC81FD81F3
:10051800A9D4A02FBB2798D0C29A12EEA12F64DFCE
:1005280043D8A8C0AA932F978FE0A0E0B0E0EAE3F1
:10053800F0E03FD81A93A889A73039F4A7E0A6D4E9
:100548001067E7E0EA93A12F58C0A889A73121F4E2
:10055800E7E1EA93A1E151C08BD4A8E011DFE1E023
:10056800EA93AFE30DDFE2E0EA93A3E086D4E4E0A8
:10057800EA93A3E005DFE5E0EA93A2E001DF82D495
:10058800E7E08FD4E8E08DD4E9E08BD4EAE0EA93A1
:10059800FE013C9667D480D4EBE0EA93FE013796DF
:1005A80061D47AD4ECE0EA93A3ECEADEEDE0EA93D6
:1005B800A4ECE6DEEEE0EA93A5ECE2DEEFE0EA93F7
:1005C800A6ECDEDEE0E1EA93FE0132964BD464D479
:1005D800E1E167D4E2E165D4E3E163D4E4E161D425
:1005E800E5E15FD4E6E15DD4E7E1EA93A1E1C8DEA5
:1005F800ECE157D4EDE1EA93A0E0C2DE1881619600
:100608000895AA93E881EFB9779BFECF3AC046D404
:100618001A9310E0E981FA81A12FB0E0AE17BF0765
:1006280058F4AB81BC81EE27A10FBE1FEC91EFB946
:10063800779BFECF1F5FEECF188163C0AFEFE1DF7E
:10064800779BFECFEFB1089529D4A9D7FFD3EA81CC
:10065800FB810E171F0768F4F801AC81BD81EA0F12
:10066800FB1FFF93EF93EADFAF91BF91EC93F7D3B2
:10067800EECF9CD726960895AA935D9BFECFE8817E
:10068800ECB921960895AA938AD7E0D3EA81D801D4
:10069800F0E0AE17BF074CF4F801AB81BC81AE0F98
:1006A800BF1FAC91E9DFDBD3F1CF2AC0F7D377D7EF
:1006B800FAD312963CD73097F1F0F5D3F7D38F01E0
:1006C800309761F00230E0E01E0770F0F8013197D2
:1006D8008F01AA81BB811496ED93FC93E4D3129603
:1006E800E8D33197AC81A083DED321D7FF2312F062
:1006F800DAD3DFD305C0D7D3EFEFFFEFED93FC9349
:1007080055D725960895DBD3E0E8EA83EFE3EB833A
:1007180044D7EE85FF85EF3FAFEFFA0739F4E88558
:10072800F985A0D3ACE4B0E076D27AC0EF3FAFE76A
:10073800FA0731F4CAD396D3ADE4B0E06CD270C0F6
:10074800AB85A73010F0E6E0EB871B85C1D311F02D
:10075800C3D3FCCFCFD31BD719F430E0BDD31BC014
:100768003B85CDD309F008F407C0B6D3C8D318F039
:10077800D0D3D4D3FBCF08C0C2D328F4CAD3D9D39B
:10078800DED33150F9CFA8D3B5D3DED3D8D3B7D37E
:1007980010F0BFD3C3D310E0EB85E11708F1DAD32B
:1007A800DED3D2D362D38AD2EC83FD836E837F8378
:1007B800B0D3D3D5C1D40E2FD8D3DED3FF27662725
:1007C8007727F3D4C7D37BD5A4D3D4D621D5B7D331
:1007D800E12F1F5FE03001F7C8D3EEE2EC93DCCFE6
:1007E800D0D33197AA85A08330302CF43195A885D1
:1007F800B985EDE203C0A885B985EBE2EC93C1D3D6
:10080800C0D3C4D33BD6E05DDB01EC93BAD3BED3EF
:1008180072D6E05DDB01EC93A885B985E0E0EC9346
:10082800C3D6609608953AD3EF976197B4D610E08F
:10083800FE01E85AFF4F0190F081E02DE887F98723
:10084800FE01EA5AFF4F0190F081E02DEE83FF830D
:10085800A2D3E0E0F0E0ED93FC93DE01A45ABF4F91
:1008680028D33197E4912E2FE03009F4A4C1E12F69
:10087800E03031F4253211F411E001C08FD39AC170
:10088800E130B9F4253211F489D393C112E0E0E0E4
:10089800ED8B00E02D3211F401E08CC12B3219F4FC
:1008A800EBE2ED8B87C1203219F4E0E2ED8B82C1D7
:1008B80002C0E23039F450E013E0203311F400684C
:1008C80079C102C0E33091F4203310F02A3308F0E4
:1008D80007C0AAE05A9F502DE22FE0535E0F6AC16D
:1008E80040E02E3211F414E065C10FC0E43099F4F1
:1008F800203310F02A3308F008C00062AAE04A9FAB
:10090800402DE22FE0534E0F55C12C3619F40260EA
:1009180015E050C103C0E53009F04CC1E22FE336C1
:1009280039F443D349D341D3A481AA934CD341C1C9
:10093800E53411F0E53609F402C0E636A9F549D3E5
:100948004DD3F9D552D356D3AD85AA2332F0AD890C
:10095800AB3241F0A03261F012C04ED3BAD345D3C6
:10096800EDE2ED8B07FF04C0ED89EA932CD307C0B5
:10097800EE85FF85319645D33197AD89A08305FF74
:1009880046E0263639F438D3EBD54A93AB89BC898F
:10099800A4D107C031D3E4D54A932A93AC89BD8941
:1009A800B2DE17D331D318C0E33729F423D331D3B8
:1009B80028D32AD30AC0E037A1F41CD32AD321D3E1
:1009C800AE85BF853FD11E2F08600F77403011F0EC
:1009D800411708F001C0142F40E0E0E0EC8B30E054
:1009E8005EC0E43611F0E93611F4046002C0E53760
:1009F80091F4EAE0EC8B01FF07C0E0E0FAEC6AE969
:100A08007BE309D31AE01FC0E0E1F7E260E070E0A1
:100A180002D315E018C0E83511F4086003C0E837C0
:100A280009F0C7C0E0E1EC8B01FF07C0E0E0F0E0AF
:100A380060E070E1F0D218E006C0E0E0F0E160E0CC
:100A480070E0E9D214E0403011F00F7701C041E0C6
:100A580001FF05C0CFD2C2D214966DD50AC002FFDD
:100A680004C0C8D2D6D2F7D404C0C4D2D2D2662722
:100A78007727EA87FB876C877D8702FF0FC0AD85E4
:100A8800AA232AF4B9D2D2D4B0D2EDE2ED8BED8903
:100A9800E03019F01F5F4F5F01C00B7F342F00FD5E
:100AA80013C0151710F4351708F00EC007FF08C05B
:100AB80002FF04C00B7F2D89115001C020E301C043
:100AC80020E26CD25150EDCF141780F4006102FF80
:100AD80005C0A6D209F0515011504150E0E3EA9305
:100AE80072D2503009F051504150EECF312FEC897D
:100AF800E030A9F4303091F003FF05C0EE85FF85A2
:100B080025917FD205C0AE85BF852D91AE87BF8761
:100B180045D2503009F051503150ECCF41C092D2FB
:100B2800C5D42E2F2A3030F003FF02C0295C01C043
:100B3800295A01C0205D04FD1DC0213348F48BD221
:100B4800A130E0E0BE07E0E08E07E0E09E0709F490
:100B58000BC0431740F4531710F000FF01C00EC03C
:100B680020E207FF07C020E3006102FF03C058D25C
:100B780009F0515013D2503009F05150315062D21F
:100B8800C6D433D2EC8967D2FF27662777278ED45D
:100B980042D2E889F9896A897B89F9D409F0BFCFFB
:100BA80000FF07C0503029F05150E0E2EA930BD221
:100BB800F9CF10E052CEEFD1BAD4F4D4EF966F96B5
:100BC8000895FF92F82E2697E8D44AD2309719F460
:100BD800EFEFFFEF1CC0DE01169624D48D0140D242
:100BE800EE83FF83E0E0E887E987DE011A961AD4EE
:100BF8009ED438D11A930A93EAE5F3E033D1DE01A3
:100C08001A9611DE9F01C7D1E0E0EC93F901CCD42C
:100C18002A96FF90089542D1E991F991A991B99145
:100C2800CD0105900D920020E1F7FC01089536D121
:100C3800A991B991EE27FF276D91662311F031969E
:100C4800FBCF08952BD1AA27BB27E991F9910590ED
:100C5800002011F01196FBCFFD01089586D47B8109
:100C68006A81F981E88177FB770F67FD7160972FBB
:100C78009E5781F078F0983190F4AA27BB278827EF
:100C880008948795B795A7959A95D1F7EA23FB23FA
:100C9800682305C0E8947727EE27FF2766276F7734
:100CA800769508F4606877F9A991B9918991999135
:100CB800EA17FB076807790797FB08959AD0CEDFF4
:100CC8004AD411F4D2D107C0EEF7CFD1A0E0B0E0FA
:100CD80080E89FE39DD224960895F1D0E0E0EA836E
:100CE800EFE3EB835CD4EB85FC85EF3FAFEFFA07CE
:100CF80029F4CFD0A4E5B0E08EDF73C0EF3FAFE7B3
:100D0800FA0729F4C6D0A5E5B0E085DF6AC0AC854E
:100D1800AA2332F4ACD1DDD1AFD1B3D1EDE2EC935B
:100D2800A885A73010F0E6E0E8871885D1D021F033
:100D3800AED115D1B1D1FACFB4D171D29DD110E0D5
:100D4800E0E0F0E060E87FE3A7D1ABD14BD360F0FF
:100D58009ED1EFD0A1D11F5F173228F09AD0A9E514
:100D6800B0E059DF3EC0F1CF103021F48AD1E0E382
:100D7800EC9318C0ADD0B1F08AD1F1D0E5D075D0E0
:100D88009DDF8AD18ED1E9D2D7D10E2F7AD1F4D076
:100D9800F0E07DD160D309D292D28CD1EBD338D296
:100DA8006BD1E8CFE885E030C1F06BD1EEE2EC938F
:100DB800E885E150E887EF5F81F07CD1BAD05CD15B
:100DC80056D1BAD10E2F5DD1D7D0F0E073D143D32D
:100DD800ECD1D0D31DD250D1EBCFAE81BF81E0E0B2
:100DE800EC93E4D32D960895E2E6F1E0FA93EA93C2
:100DF8000895BBD3ABD30895ECE5FFE862E570E452
:100E0800F1D20895ACE2B1E05AC1A0D30895FDDF54
:100E1800E8E4F1EE6AE570E4E5D20895F6DFEDEC7A
:100E2800FCEC6CE670E4DED20895E0939A01EDEDF7
:100E3800E0939B01ECECE0939C01EBEBE0939D01CC
:100E4800EBECE0939E01E5E0EA93089500E010E002
:100E58000895F801DE011496EE0FFF1F08950F5F45
:100E68001F4F0895FA93EA930895DF01CB0108957F
:100E7800E0E0EA930895A0E083CA82DAE3E0EA9327
:100E8800A3E07ECAE6E0EA93AEE07ACA9CDA1E2FB7
:100E98000895EE81FF81E6CFA5E085CABA93AA93AB
:100EA8000895EA93E8CFAA81BB81089514963FD3A9
:100EB8000895ED91FD913196FE93EE930895EEDF3E
:100EC8002497E0E0E883E9830895E885F9850895A3
:100ED800E12F1150E0300895AC81BD818E819F8152
:100EE800E0E0F0E060E271E4EAD1EC83FD836E8338
:100EF8007F830895EC85FD856E857F850895EC8157
:100F0800FD816E817F81AC85BD858E859F856AD286
:100F18000895AC85BD858E859F850895EDECFCEC24
:100F28006CEC7DE3CCD1EC87FD876E877F873F5FD4
:100F38000895E0E0F0E060E271E4C1D10895EC8743
:100F4800FD876E877F870895A0E0B0E080E09FE38B
:100F580066D10895AC81BD818E819F810895EDECA5
:100F6800FCEC6CEC7DE3ABD10895A885B9851196AE
:100F7800A887B98711970895E02FE05DEC93E02FDB
:100F88000895A3DF3196E887F98708953197BF015F
:100F9800A32FEAE00895AE81BF8108952A93AF8117
:100FA800B885E985FA8509950895FE01E65AFF4F47
:100FB8000190F081E02D08953497DE01A65ABF4FC5
:100FC800ED93FC930895AF81B885E985FA85099575
:100FD8000895FE017696EE87FF870895DE01A65AEA
:100FE800BF4F0D90BC91A02D0895EA87FB876C87B1
:100FF8007D870895DADFE0CFEA85FB856C857D85FE
:101008000895EE87FF870895AE85BF8510DE1E2FF1
:101018000895E4DF4BCFE88BF98B6A8B7B8B0895BF
:101028000B7FED89EA93DE01A95ABF4F0D90BC9161
:10103800A02DFE01E75AFF4F0190F081E02D0995A0
:1010480050300895E889F9896A897B89AA85BB8522
:101058008C859D850895A889B9898A899B89089571
:10106800DE011C96DFD163D208956BD20895E9851D
:10107800FA856B857C850895E987FA876B877C8775
:10108800089589DF1196AE83BF8311970895AA81C9
:10109800BB818C819D810895EA83FB836C837D836A
:1010A8000895EA81FB816C817D81A985BA858B854C
:1010B8009C850895A985BA858B859C850895109689
:1010C80039F0A89584EF91E00197F1F71197C9F7E6
:1010D800089530976040704009F07058089555237E
:1010E80042F4503811F4E0FF04C03196691F791FAB
:1010F8006BF050E8572711F45F93CFC05F3F31F092
:10110800660F000C57956795752F08955F9300201B
:101118000AF0CFC0C8C050E8192E1522880F991FB1
:101128009527550F879550E8072E0522660F771FDC
:101138007527550F67950895689401C0E8945F93E3
:10114800F2DF703818F07F3F08F4A7C056E1571B4C
:10115800AAF4519558300EF4593030F0EFEFFFEF04
:101168006FEF7FE777F91AC077275523B9F0EE0FAD
:10117800FF1F661F771F5A95D1F710C07727583081
:1011880028F0EF2FF62F672F5850F9CF552331F05D
:1011980076956795F795E7955A95D1F700200AF463
:1011A80045D15F910895689401C0E89430976040F4
:1011B8007040B1F0002426F0772312F4009436D161
:1011C800172E7EE1112032F07A95EE0FFF1F661F71
:1011D800111CF9CFEF2FF62F612D5F938ADF5F91F6
:1011E80008954F93AF01FD01DA01AB01BC01CA01BB
:1011F800402D012C142E4F910895EA0FFB1F681FF4
:101208000895E095F0956095EF5FFF4F6F4F089553
:101218005F9381DF903871F150E8152604C05F9321
:101228007ADF903839F1703821F1572F591B2BF19B
:1012380012F4D7DFFACF583118F0AA27BB2788272E
:10124800583028F0AB2FB82F88275850F9CF55239E
:1012580029F08695B795A7955A95D9F7502D512518
:1012680072F0CBDF38F46795F795E795739513F42B
:1012780020C0B7DF3EDF5F910895D8F7FBCFEA1BA8
:10128800FB0B680B51F010F40094BBDF662392F35C
:10129800EE0FFF1F661F7A95CBF7EE27FF2766270D
:1012A80077275F910895EFEFFFEF6FE77FEF5F918B
:1012B8000895EFEFFFEF6FE77FE75F9108955F9382
:1012C8002ADF703851F3903841F301240894791FCC
:1012D80023F41CF300203AF3ECCF0F921F932F93C3
:1012E8003F934F93112722279927689FA0018F9F2B
:1012F800302D410D591F6B9F300D411D591F8E9F79
:1013080027D0BF9F25D06A9F23D0BE9F1DD0AF9FF7
:101318001BD0AE9F110D291F391F491F591FE32FDD
:10132800F42F652F522F4F913F912F911F910F90BE
:1013380066232AF0550FEE1FFF1F661F02C0739524
:101348004BF2CDDE5F910895100D211D391F02C0AB
:10135800200D311D491F591F08955F93DCDE703839
:1013680021F411200AF49FCFA4CF903809F495CF27
:1013780001240894970B1BF4D4F30020F3CF792FA2
:101388001F932F933F934F9311241127222733271D
:101398004427552790E2AE17BF078607410730F06C
:1013A800AE1BBF0B860B410B089401C08894551FD8
:1013B800221F331F111CAA1FBB1F881F441F9A9589
:1013C80051F7F901612D4F913F912F911F9166239C
:1013D80032F0550FEE1FFF1F661F7A9543F27FDE2E
:1013E8005F91089599239AF0772342F0971748F070
:1013F80029F4AE17BF07860720F031F09894889437
:1014080008959894089408951894889408957723D3
:10141800C2F7971798F3A9F7EA17FB07680788F345
:1014280099F3ECCF0024AF0DB01D0895F0956095A9
:101438007095E195FF4F6F4F7F4F0895F595E795AC
:10144800F595E795F595E7950895FE2FFF0FFF0BA6
:101458006F2F7F2F08956F2F660F660B762F0895D5
:10146800002498E0AA0F001C0E1A10F40E0E01C0FA
:10147800A1609A95B9F7EA2FA02D08954CD0F0DF16
:101488000EF4E19508950024112490E1AA0FBB1FE2
:10149800001C111C0E1A1F0A18F40E0E1F1E01C084
:1014A800A1609A9599F7FD01D00108953F934F9354
:1014B8005F93002411244427552730E2AA0FBB1F4D
:1014C800881F991F001C111C441F551F0E1A1F0A44
:1014D800460B570B28F40E0E1F1E461F571F01C040
:1014E800A1603A9559F7FD01BC01D001CA015F918D
:1014F8004F913F910895E894A7FF02C0A195689481
:10150800E7FDE195ADDFEA2F0EF4E1950895CEDF12
:10151800FD01BC010895E894E7FF02C0E1956894D5
:10152800A7FF04C0A19500F8039400FA0895ED916F
:10153800FC9111970895ED91FD916D917C91139710
:101548000895E881F9816A817B810895A881B9812C
:101558008A819B810895E883F9836A837B83089550
:101568007A936A93FA93EA9308959A938A93BA932B
:10157800AA930895182E862F612D192E972F712D55
:101588001B2EBF2FF12D1A2EAE2FE12D0895309767
:101598006040704008955A934A933A932A931A9355
:1015A8000A9308955D814C813B812A8119810881C4
:1015B8000895AC0FBD1F05900D928A95E1F7089527
:00000001FF
